:020000040810E2
:1000000000000C20A5031008F5031008F5031008E4
:100010005D031008F503100865031008F5031008C8
:100020000000000000000000000000006D03100848
:10003000F5031008000000007B0310088903100876
:10004000F5031008F5031008F5031008F503100870
:10005000F5031008F5031008F5031008F503100860
:10006000F5031008F5031008F5031008F503100850
:10007000F5031008F5031008F5031008F503100840
:10008000F5031008F5031008F5031008F503100830
:10009000F5031008F5031008F5031008F503100820
:1000A000F5031008F5031008F5031008F503100810
:1000B00000000000F5031008F5031008F503100810
:1000C000F5031008F5031008F5031008F5031008F0
:1000D000F5031008F5031008F5031008F5031008E0
:1000E000F5031008F5031008F5031008F5031008D0
:1000F000F5031008F5031008F5031008F5031008C0
:10010000F5031008F5031008F5031008F5031008AF
:10011000F5031008F5031008F5031008F50310089F
:10012000F5031008F5031008F5031008F50310088F
:10013000F5031008F5031008F5031008F50310087F
:10014000F5031008F5031008F5031008F50310086F
:10015000F5031008F5031008F5031008F50310085F
:10016000F5031008F5031008F5031008F50310084F
:10017000F5031008F5031008F5031008F50310083F
:10018000F5031008F5031008F5031008F50310082F
:10019000F5031008F5031008F5031008F50310081F
:1001A000F5031008F5031008F5031008F50310080F
:1001B000F503100800000000F5031008F50310080F
:1001C000F503100800000000F5031008F5031008FF
:1001D000F5031008F5031008F5031008F5031008DF
:1001E000F5031008F5031008F5031008F5031008CF
:1001F0000000000000000000F5031008F5031008DF
:10020000F5031008F5031008F5031008F5031008AE
:10021000F5031008F5031008F5031008F50310089E
:10022000F5031008F5031008F5031008F50310088E
:08023000F5031008F5031008A6
:1002380010B5054C237833B9044B13B10448AFF318
:1002480000800123237010BD0C0004200000000072
:10025800C41E100808B5034B1BB103490348AFF38C
:10026800008008BD0000000010000420C41E100813
:1002780080B500AF00F0BCF800F002F800BFFDE761
:1002880080B59EB000AF07F1180360220021184620
:1002980001F0E8FD3B4600221A605A609A60DA6075
:1002A8001A615A61002000F0D1FA0346002B01D0F0
:1002B80000F02FF81023BB6101237B631023BB637D
:1002C8004FF08043FB6300233B6507F11803184692
:1002D80000F058FB0346002B01D000F01AF81F234A
:1002E8003B6000237B600023BB600023FB6000238E
:1002F8003B6100237B613B460021184601F01EFA52
:100308000346002B01D000F004F800BF7837BD4643
:1003180080BD80B400AF72B600BF00BFFDE700002B
:1003280080B582B000AF0A4BD3F89430084A43F046
:100338000403C2F89430064BD3F8943003F0040356
:100348007B607B6800F00EFB00BF0837BD4680BDB0
:10035800000C024680B400AF00BFFDE780B400AFD8
:1003680000BFFDE780B400AF00BFBD465DF8047B69
:10037800704780B400AF00BFBD465DF8047B70478E
:1003880080B500AF00F0DAF800BF80BD80B400AFE0
:1003980000BFBD465DF8047B70470000DFF834D02D
:1003A800FFF7F4FF002103E00B4B5B584350043187
:1003B8000A480B4B42189A42F6D30A4A02E0002335
:1003C80042F8043B084B9A42F9D301F053FDFFF77A
:1003D8004FFFFEE700000C20341F10080000042027
:1003E800090004200C0004202C000420FEE7000073
:1003F80080B500AF124B1B68114A43F48073136039
:10040800032000F04AF901F08BFB02460D4B1B6AF2
:1004180003F00F030C49CB5C22FA03F30B4A136079
:10042800042000F081F90F2000F012F80346002B99
:1004380001D0012302E0FFF773FF0023184680BDB7
:1004480000200240000C0246DC1E100800000420B8
:1004580080B584B000AF78600023FB60334B1B7815
:10046800002B01D101235CE0314B1B6803F004032E
:10047800042B0CD12F4B1A682C4B1B7819464FF4C0
:100488007A73B3FBF1F3B2FBF3F3FB6037E000F0F0
:10049800A3F9B860BB68022B23D0BB68022B2DD808
:1004A800BB68002B03D0BB68012B0DD026E0214B85
:1004B8001A681E4B1B7819464FF4FA53B3FBF1F335
:1004C800B2FBF3F3FB601AE0184B1B781A464FF4A3
:1004D8007A73B3FBF2F34FF4FA42B2FBF3F3FB6027
:1004E8000DE0124B1B781A464FF47A73B3FBF2F304
:1004F8004FF40042B2FBF3F3FB6000E000BFF86882
:1005080000F0F0F80346002B01D0012309E0002297
:1005180079684FF0FF3000F0CBF8074A7B6813602A
:10052800002318461037BD4680BD00BF08000420D0
:1005380010E000E0000004200400042080B400AFB4
:10054800064B1B781A46064B1B681344044A136073
:1005580000BFBD465DF8047B704700BF080004205B
:100568002800042080B400AF034B1B681846BD4622
:100578005DF8047B704700BF2800042080B485B074
:1005880000AF78607B6803F00703FB600C4BDB6807
:10059800BB60BA684FF6FF031340BB60FB681A02E2
:1005A800BB68134343F0BF6343F40033BB60044AA2
:1005B800BB68D36000BF1437BD465DF8047B704745
:1005C80000ED00E080B400AF044BDB681B0A03F0C9
:1005D80007031846BD465DF8047B704700ED00E050
:1005E80080B483B000AF03463960FB7197F90730D8
:1005F800002B0ADB3B68DAB20C4997F90730120185
:10060800D2B20B4483F800230AE03B68DAB2084907
:10061800FB7903F00F03043B1201D2B20B441A76A4
:1006280000BF0C37BD465DF8047B704700E100E071
:1006380000ED00E080B489B000AFF860B9607A607E
:10064800FB6803F00703FB61FB69C3F10703042B95
:1006580028BF0423BB61FB690433062B02D9FB695D
:10066800033B00E000237B614FF0FF32BB6902FAD5
:1006780003F3DA43BB681A407B699A404FF0FF31B5
:100688007B6901FA03F3D9437B680B40134318468F
:100698002437BD465DF8047B704780B582B000AF53
:1006A80078607868FFF76AFF00BF0837BD4680BDED
:1006B80080B586B000AF0346B9607A60FB73FFF778
:1006C80081FF78617A68B9687869FFF7B3FF0246F5
:1006D80097F90F3011461846FFF782FF00BF183709
:1006E800BD4680BD80B483B000AF78607B68013BB5
:1006F800B3F1807F01D301230DE00A4A7B68013BF7
:100708005360084B00229A60064B1B68054A43F069
:1007180003031360002318460C37BD465DF8047BBD
:10072800704700BF10E000E080B483B000AF78608D
:100738007B68042B44D801A252F823F067071008FD
:1007480085071008A7071008C907100859071008D7
:100758001F4B1B681E4A43F00403136031E01C4B17
:100768001B681B4A23F0040313601A4BD3F8E030CC
:10077800184A23F44003C2F8E03022E0144B1B6807
:10078800134A23F004031360124BD3F8E03023F428
:100798004003104A43F48003C2F8E03011E00C4BE8
:1007A8001B680B4A23F0040313600A4BD3F8E030AC
:1007B80023F44003074A43F40003C2F8E03000E0A2
:1007C80000BF00BF0C37BD465DF8047B704700BF13
:1007D80010E000E0000C024680B483B000AF194B73
:1007E8001B6803F00403002B02D004237B6021E084
:1007F800154BD3F8E03003F440033B603B68B3F596
:10080800000F11D03B68B3F5000F10D83B68002BE0
:1008180004D03B68B3F5800F03D008E000237B6069
:1008280008E001237B6005E002237B6002E00023EF
:100838007B6000BF7B6818460C37BD465DF8047BBB
:10084800704700BF10E000E0000C024680B485B09D
:1008580000AF7860394BDB6B03F44033BB60BA6898
:100868007B689A420BD17B68B3F5803F05D9334B3F
:10087800DB68324A43F48023D360002357E07B6867
:10088800B3F5803F0AD92D4BDB6823F4E0227B685F
:1008980013432A4A43F48023D36007E0274BDB68DD
:1008A80023F4E02225497B681343CB60244B1B6863
:1008B800244AA2FB03239B09322202FB03F3214AA9
:1008C800A2FB03239B090133FB6002E0FB68013BA9
:1008D800FB601A4BDB6803F40043002B02D1FB6872
:1008E800002BF3D1FB68002B1BD0154B1B68154A56
:1008F800A2FB03239B09322202FB03F3114AA2FB4A
:1009080003239B090133FB6002E0FB68013BFB60AA
:100918000A4BDB6B03F40043002B02D1FB68002B6E
:10092800F3D1FB68002B01D1032300E00023184614
:100938001437BD465DF8047B704700BF00080246C7
:1009480000000420D34D621080B400AF044BDB6B71
:1009580003F440331846BD465DF8047B704700BF7A
:100968000008024680B400AF054B1B69044A43F0F7
:100978000053136100BFBD465DF8047B704700BF9C
:100988000008024680B58EB000AF7860002387F873
:1009980037307B68002B02D1012300F0C8BE994B89
:1009A800DB6903F00C033B63964B9B6A03F003037C
:1009B800FB627B681B6803F01003002B00F06C815E
:1009C8003B6B002B07D03B6B0C2B40F0DE80FB6AA7
:1009D800012B40F0DA807B68DB69002B02D1012310
:1009E80000F0A5BE7B685A6A864B9B6803F4000337
:1009F800002B04D0834B9B6803F0704305E0814BC8
:100A0800D3F8F4301B0403F07043934255D23B6B88
:100A1800002B0AD17B685B6A184601F09DF90346F2
:100A2800002B02D0012300F082BE764B9B68754AEA
:100A380043F400039360734B9B6823F070427B6818
:100A48005B6A704913438B607B685B6AB3F1404F04
:100A580009D36C4BDB6823F01F027B681B6A69496A
:100A68001343CB607EE07B685B6A002B0ADA654B38
:100A7800DB6823F478727B681B6A5B016149134366
:100A8800CB606FE07B685B6AB3F1804F0AD35D4B44
:100A9800DB6823F4F8427B681B6A9B0259491343BD
:100AA800CB605FE0574BDB6823F478227B681B6AD6
:100AB800DB0354491343CB6054E0524B9B68514AC3
:100AC80043F4000393604F4B9B6823F070427B68AC
:100AD8005B6A4C4913438B607B685B6AB3F1404F98
:100AE80009D3484BDB6823F01F027B681B6A454922
:100AF8001343CB6028E07B685B6A002B0ADA414B22
:100B0800DB6823F478727B681B6A5B013D491343F9
:100B1800CB6019E07B685B6AB3F1804F0AD3394B2D
:100B2800DB6823F4F8427B681B6A9B023549134350
:100B3800CB6009E0334BDB6823F478227B681B6ABF
:100B4800DB0330491343CB603B6B002B0AD17B6836
:100B58005B6A184601F000F90346002B02D0012316
:100B680000F0E5BD01F0DEF8274B1B681846FFF7DB
:100B78006FFC034687F8273097F82730002B00F0E2
:100B88008A8097F8273000F0D2BD7B68DB69002B9C
:100B980066D01C4B1B681B4A43F001031360FFF728
:100BA800E1FCB86209E0FFF7DDFC0246BB6AD31A34
:100BB800022B02D9032300F0BABD124B1B6803F0C5
:100BC8000403002BEFD00F4B9B680E4A43F400033D
:100BD80093600C4B9B6823F070427B685B6A094901
:100BE80013438B607B685B6AB3F1404F0ED3054BB0
:100BF800DB6823F01F027B681B6A02491343CB6042
:100C08004AE000BF000C0246040004207B685B6ACF
:100C1800002B0ADA984BDB6823F478727B681B6A2E
:100C28005B0195491343CB6036E07B685B6AB3F19F
:100C3800804F0AD3904BDB6823F4F8427B681B6A29
:100C48009B028D491343CB6026E08B4BDB6823F472
:100C580078227B681B6ADB0387491343CB601BE060
:100C6800854B1B68844A23F001031360FFF77AFC65
:100C7800B86209E0FFF776FC0246BB6AD31A022B7A
:100C880002D9032300F053BD7B4B1B6803F0040318
:100C9800002BEFD100E000BF7B681B6803F0010365
:100CA800002B00F08B803B6B082B05D03B6B0C2B8B
:100CB80009D1FB6A032B06D17B685B68002B7DD1C9
:100CC800012300F034BD7B685B68B3F5803F06D133
:100CD800694B1B68684A43F48033136041E07B68C2
:100CE8005B68B3F5A02F12D1634B1B68624A43F4CB
:100CF80080231360604B1B685F4A23F480131360E2
:100D08005D4B1B685C4A43F48033136029E07B68C1
:100D18005B68B3F5A81F12D1574B1B68564A43F4BA
:100D280080231360544B1B68534A43F480131360A9
:100D3800514B1B68504A43F48033136011E04E4B0B
:100D48001B684D4A23F4803313604B4B1B684A4A97
:100D580023F480231360484B1B68474A23F480130D
:100D680013607B685B68002B14D0FFF7FBFBB8624D
:100D780009E0FFF7F7FB0246BB6AD31A642B02D9D6
:100D8800032300F0D4BC3C4B1B6803F40033002B56
:100D9800EFD013E0FFF7E6FBB86209E0FFF7E2FBEC
:100DA8000246BB6AD31A642B02D9032300F0BFBCE6
:100DB800314B1B6803F40033002BEFD17B681B68B1
:100DC80003F00203002B5FD03B6B042B05D03B6B79
:100DD8000C2B14D1FB6A022B11D17B68DB68002B2A
:100DE80002D1012300F0A3BC234B1B6923F4F812A2
:100DF8007B681B691B04204913430B6144E07B6833
:100E0800DB68002B24D01C4B1B681B4A43F48073FF
:100E18001360FFF7A7FBB86209E0FFF7A3FB0246E0
:100E2800BB6AD31A022B02D9032300F080BC124BF1
:100E38001B6803F48063002BEFD00F4B1B6923F46E
:100E4800F8127B681B691B040B4913430B611BE0F9
:100E5800094B1B68084A23F480731360FFF782FB71
:100E6800B8620BE0FFF77EFB0246BB6AD31A022B7F
:100E780004D9032300F05BBC000C0246AF4B1B688F
:100E880003F48063002BEDD17B681B6803F0080333
:100E9800002B00F0C880002387F83630A74BD3F822
:100EA800943003F00403002B11D1A44BD3F89430F1
:100EB800A24A43F00403C2F89430A04BD3F894300C
:100EC80003F004037B617B69012387F836309C4B70
:100ED8009B6A03F00103002B19D1994B9B6A984A2E
:100EE80043F001039362FFF73DFBB86209E0FFF7A7
:100EF80039FB0246BB6AD31A022B02D9032300F03E
:100F080016BC8F4B9B6A03F00103002BEFD07B6864
:100F18005B69002B5FD0894BD3F8F0303B627B686C
:100F28009A693B6A03F080539A4237D03B6A03F0D0
:100F38000063002B06D03B6A03F08063002B01D1CD
:100F48000123F4E33B6A03F08063002B1BD07B4B47
:100F5800D3F8F030794A23F0A053C2F8F030FFF705
:100F680001FBB86208E0FFF7FDFA0246BB6AD31A34
:100F7800052B01D90323DAE3704BD3F8F03003F0E3
:100F88000063002BEFD16D4BD3F8F03023F0805283
:100F98007B689B6969491343C1F8F030674BD3F804
:100FA800F030664A43F08063C2F8F030FFF7DAFAAF
:100FB800B86208E0FFF7D6FA0246BB6AD31A052BD7
:100FC80001D90323B3E35D4BD3F8F03003F000639A
:100FD800002BEFD01BE0594BD3F8F030574A23F0E1
:100FE800A053C2F8F030FFF7BDFAB86208E0FFF787
:100FF800B9FA0246BB6AD31A052B01D9032396E333
:101008004E4BD3F8F03003F00063002BEFD197F884
:101018003630012B07D1494BD3F89430474A23F097
:101028000403C2F894307B681B6803F00403002BA8
:1010380000F01181002387F83530404BD3F8943005
:1010480003F00403002B11D13C4BD3F894303B4AF6
:1010580043F00403C2F89430384BD3F8943003F0CB
:1010680004033B613B69012387F83530344B9B6AA5
:1010780003F00103002B18D1314B9B6A304A43F02F
:1010880001039362FFF76EFAB86208E0FFF76AFAA5
:101098000246BB6AD31A022B01D9032347E3284B24
:1010A8009B6A03F00103002BF0D07B689B6803F078
:1010B8000103002B1FD07B689B6803F00403002BFF
:1010C80010D01E4BD3F8F0301C4A43F00403C2F88A
:1010D800F0301A4BD3F8F030184A43F00103C2F845
:1010E800F03018E0154BD3F8F030144A43F0010300
:1010F800C2F8F0300FE0114BD3F8F0300F4A23F06C
:101108000103C2F8F0300D4BD3F8F0300B4A23F04E
:101118000403C2F8F0307B689B68002B57D0FFF7B8
:1011280021FAB8620EE0FFF71DFA0246BB6AD31A2D
:1011380041F28832934205D90323F8E2000C0246B3
:10114800000802469C4BD3F8F03003F00203002B52
:10115800E9D07B689B6803F08003002B1BD0964B7B
:10116800D3F8F030944A43F08003C2F8F0300AE034
:10117800FFF7F8F90246BB6AD31A41F28832934264
:1011880001D90323D3E28C4BD3F8F03003F4006386
:10119800002BEDD053E0884BD3F8F030864A23F08B
:1011A8008003C2F8F0300AE0FFF7DCF90246BB6AB8
:1011B800D31A41F28832934201D90323B7E27E4B16
:1011C800D3F8F03003F40063002BEDD137E0FFF7DC
:1011D800C9F9B8620AE0FFF7C5F90246BB6AD31A33
:1011E80041F28832934201D90323A0E2724BD3F82B
:1011F800F03003F00203002BEDD16F4BD3F8F03041
:1012080003F08003002B1AD06B4BD3F8F0306A4AF6
:1012180023F08003C2F8F0300AE0FFF7A3F9024692
:10122800BB6AD31A41F28832934201D903237EE282
:10123800614BD3F8F03003F40063002BEDD197F83D
:101248003530012B07D15C4BD3F894305A4A23F040
:101258000403C2F894307B681B6803F02003002B5A
:1012680036D07B68DB6A002B19D0534B1B68524A77
:1012780043F480531360FFF775F9B86208E0FFF78D
:1012880071F90246BB6AD31A022B01D903234EE235
:10129800494B1B6803F40053002BF0D018E0464B71
:1012A8001B68454A23F480531360FFF75BF9B86263
:1012B80008E0FFF757F90246BB6AD31A022B01D997
:1012C800032334E23C4B1B6803F40053002BF0D19A
:1012D8007B681B6803F08003002B36D07B681B6B90
:1012E800002B19D0344B1B68334A43F480431360F6
:1012F800FFF738F9B86208E0FFF734F90246BB6A2D
:10130800D31A022B01D9032311E22B4B1B6803F4D8
:101318000043002BF0D018E0274B1B68264A23F423
:1013280080431360FFF71EF9B86208E0FFF71AF967
:101338000246BB6AD31A022B01D90323F7E11E4BDD
:101348001B6803F40043002BF0D17B681B6803F093
:101358004003002B7FD07B685B6B002B62D0164B61
:101368009B68154A43F400039360134B9B6823F072
:1013780070627B689B6A104913438B607B685B6A69
:10138800B3F1404F09D30C4BDB6823F01F027B6895
:101398001B6A09491343CB602AE07B685B6A002B10
:1013A8000CDA054BDB6823F478727B681B6A5B01F7
:1013B80001491343CB601BE0000C02467B685B6A63
:1013C800B3F1804F0AD3A14BDB6823F4F8427B6862
:1013D8001B6A9B029D491343CB6009E09B4BDB686A
:1013E80023F478227B681B6ADB0398491343CB609C
:1013F800964B1B68954A43F010031360FFF7B2F849
:10140800B86208E0FFF7AEF80246BB6AD31A022BAF
:1014180001D903238BE18D4B1B6803F02003002BBC
:10142800F0D018E0894B1B68884A23F0100313603A
:10143800FFF798F8B86208E0FFF794F80246BB6A2D
:10144800D31A022B01D9032371E1804B1B6803F0E7
:101458002003002BF0D17B689B6B002B00F066818A
:10146800002387F83430794BDB6903F00C030C2B2D
:1014780000F0F2807B689B6B022B40F0C580734BB9
:101488001B68724A23F080731360FFF76BF8B86229
:1014980008E0FFF767F80246BB6AD31A022B01D9A6
:1014A800032344E1694B1B6803F00073002BF0D160
:1014B800664BD3F8943003F00403002B11D1634B2F
:1014C800D3F89430614A43F00403C2F894305F4B78
:1014D800D3F8943003F00403FB60FB68012387F81A
:1014E80034305B4BDB6803F48023B3F5802F02D1E3
:1014F800012387F83730564BDB68554A23F480239D
:10150800D360524B9B6A23F47F4323F003037A682A
:10151800D16B7A68126C013A120211437A68526CE4
:101528000A434A4913438B62484B5A6B494B134051
:101538007A68926C013AC2F308017A68D26C013A6F
:10154800520292B211437A68126D013A120402F4FF
:10155800FE0211437A68526D013A120602F0FE4209
:101568000A433A4913434B63384B9B6A374A23F083
:10157800100393627B68DB6D344ADB009363334B63
:101588009B6A324A43F010039362304B9B6A23F004
:101598000C027B689B6D2D4913438B6297F837309B
:1015A800012B05D12A4BDB68294A43F48023D360F9
:1015B80097F83430012B07D1244BD3F89430234AC1
:1015C80023F00403C2F89430204B1B681F4A43F0F1
:1015D80080731360FEF7C6FFB86208E0FEF7C2FF2B
:1015E8000246BB6AD31A022B01D903239FE0174B8B
:1015F8001B6803F00073002BF0D0144B9B6A134A4E
:1016080043F48023936291E0104B1B680F4A23F048
:1016180080731360FEF7A6FFB86208E0FEF7A2FF2A
:101628000246BB6AD31A022B01D903237FE0074B7A
:101638001B6803F00073002BF0D1044B9B6A034A2C
:1016480023F4E02323F0030393626FE0000C0246C7
:101658000008024600008080374B9B6AFB61364BCE
:101668005B6BBB617B689B6B012B39D0FB6903F01B
:1016780003027B68DB6B9A4232D1FB691B0A03F0D9
:101688000F027B681B6C013B9A4229D1FB6903F46A
:1016980070427B685B6C9A4222D1BB69C3F3080233
:1016A8007B689B6C013B9A421AD1BB695B0A03F0C9
:1016B8007F027B68DB6C013B9A4211D1BB691B0C32
:1016C80003F07F027B681B6D013B9A4208D1BB691E
:1016D8001B0E03F07F027B685B6D013B9A4201D0D1
:1016E800012324E0144B9B6BDB08C3F30C027B68DB
:1016F800DB6D9A421AD0104B9B6A0F4A23F01003F5
:101708009362FEF72FFFB86200BFFEF72BFF024679
:10171800BB6A9342F9D07B68DB6D074ADB009363B1
:10172800054B9B6A044A43F0100393620023184652
:101738003837BD4680BD00BF000C024680B586B074
:1017480000AF786039607B68002B01D10123D9E1B3
:101758009B4B1B6803F00F033A689A4210D9984BC9
:101768001B6823F00F0296493B6813430B60944BA8
:101778001B6803F00F033A689A4201D00123C1E1C4
:101788007B681B6803F01003002B10D07B685A6934
:101798008C4B5B6A03F070039A4208D9894B5B6AE9
:1017A80023F070027B685B69864913434B627B6850
:1017B8001B6803F00803002B12D07B681A69814B61
:1017C8001B6A1B0903F070039A4209D97D4B1B6AF7
:1017D80023F4E0627B681B691B017A4913430B629F
:1017E8007B681B6803F00403002B10D07B68DA6861
:1017F800744B1B6A03F070039A4208D9714B1B6A39
:1018080023F070027B68DB686E4913430B627B68C8
:101818001B6803F00203002B10D07B689A68694BA1
:101828001B6A03F00F039A4208D9664B1B6A23F020
:101838000F027B689B68634913430B627B681B68D4
:1018480003F00103002B00F0D2800023FB757B68B6
:101858005B68032B43D15B4BD3F8943003F004034C
:10186800002B10D1574BD3F89430564A43F0040359
:10187800C2F89430534BD3F8943003F00403BB60A0
:10188800BB680123FB75FEF76DFE38614E4BDB68C4
:1018980003F48023002B0FD008E0FEF763FE024616
:1018A8003B69D31A022B01D903232BE1464BDB6892
:1018B80003F48043002BF0D0FB7D012B07D1414B73
:1018C800D3F894303F4A23F00403C2F894303D4BD8
:1018D8001B6803F00073002B21D1012312E17B6800
:1018E8005B68022B07D1374B1B6803F40033002BCE
:1018F80015D1012306E17B685B68002B07D1314BCA
:101908001B6803F00403002B09D10123FAE02D4BD7
:101918001B6803F48063002B01D10123F2E0294BFB
:10192800DB6923F003027B685B6826491343CB61BC
:10193800FEF718FE38617B685B68032B12D10AE05A
:10194800FEF710FE02463B69D31A41F288329342F1
:1019580001D90323D6E01B4BDB6903F00C030C2BE6
:10196800EED144E07B685B68022B12D10AE0FEF7F7
:10197800F9FD02463B69D31A41F28832934201D9F4
:101988000323BFE00F4BDB6903F00C03082BEED1F8
:101998002DE07B685B68002B23D10AE0FEF7E2FDAF
:1019A80002463B69D31A41F28832934201D9032394
:1019B800A8E0044BDB6903F00C03002BEED116E022
:1019C80000200240000C024600080246FEF7CAFD4D
:1019D80002463B69D31A41F28832934201D9032364
:1019E80090E04A4BDB6903F00C03042BEED17B68D3
:1019F8001B6803F00203002B10D07B689A68434BE6
:101A08001B6A03F00F039A4208D2404B1B6A23F06B
:101A18000F027B689B683D4913430B623C4B1B6874
:101A280003F00F033A689A4210D2394B1B6823F02F
:101A38000F0237493B6813430B60354B1B6803F0B3
:101A48000F033A689A4201D001235BE07B681B6868
:101A580003F00403002B10D07B68DA682B4B1B6A59
:101A680003F070039A4208D2284B1B6A23F07002D5
:101A78007B68DB68254913430B627B681B6803F0AE
:101A88000803002B12D07B681A69204B1B6A1B09BC
:101A980003F070039A4209D21C4B1B6A23F4E062DC
:101AA8007B681B691B01194913430B627B681B6820
:101AB80003F01003002B10D07B685A69134B5B6A44
:101AC80003F070039A4208D2104B5B6A23F070024D
:101AD8007B685B690D4913434B6200F021F80246AD
:101AE8000A4B1B6A03F00F030A49CB5C22FA03F383
:101AF800094A1360094B1B681846FEF7A9FC034600
:101B0800FB73FB7B18461837BD4680BD000C0246A8
:101B180000200240DC1E10080000042004000420FD
:101B280080B48BB000AF00237B6200233B62784B0C
:101B3800DB6903F00C03BB61754B9B6A03F003037D
:101B48007B61BB69002B05D0BB690C2B21D17B695C
:101B5800012B1ED16E4B9B6803F40003002B07D1A9
:101B68006B4BD3F8F4301B0B03F00F037B6205E0DB
:101B7800674B9B681B0F03F00F037B62654A7B6A08
:101B880052F823307B62BB69002B10D17B6A3B6221
:101B98000DE05F4BDB6903F00C03042B02D15E4BB5
:101BA8003B6204E0BB69082B01D15B4B3B62BB691C
:101BB8000C2B40F0A580564B9B6A03F003033B6156
:101BC800534B9B6A1B0A03F00F030133FB60504B16
:101BD8009B6A1B0903F00103BB604D4B9B6BDB0841
:101BE800C3F30C03BA6802FB03F307EE903AF8EE6E
:101BF800677AC7ED017A3B69022B03D03B69032B57
:101C080022D043E0FB6807EE903AF8EE677ADFED02
:101C1800436A86EEA77A3E4B5B6BC3F3080307EE75
:101C2800903AF8EE676A97ED016ADFED3D5AC6EE25
:101C3800257A76EEA77AF7EE006A77EEA67A67EE4F
:101C4800277AC7ED077A46E0FB6807EE903AF8EE88
:101C5800677ADFED326A86EEA77A2D4B5B6BC3F3AA
:101C6800080307EE903AF8EE676A97ED016ADFED30
:101C78002C5AC6EE257A76EEA77AF7EE006A77EE4A
:101C8800A67A67EE277AC7ED077A24E07B6A07EE23
:101C9800903AF8EE676AFB6807EE903AF8EE677AD2
:101CA80086EEA77A1A4B5B6BC3F3080307EE903AEC
:101CB800F8EE676A97ED016ADFED195AC6EE257AE4
:101CC80076EEA77AF7EE006A77EEA67A67EE277ABD
:101CD800C7ED077A00BF0E4B5B6B1B0E03F07F034B
:101CE80001333B603B6807EE903AB8EE677AD7ED70
:101CF800076AC6EE877AFCEEE77A17EE903A3B62FF
:101D08003B6A18462C37BD465DF8047B704700BF18
:101D1800000C0246EC1E10080024F4000024744B4A
:101D28000000004680B500AFFFF7FAFE0246074BF9
:101D38001B6A03F00F030649CB5C22FA03F3054A3A
:101D48001360044B1B68184680BD00BF000C024698
:101D5800DC1E10080000042080B586B000AF786053
:101D68003E4BD3F8943003F00403002B03D0FEF766
:101D7800EBFD786119E0394BD3F89430374A43F0DA
:101D88000403C2F89430354BD3F8943003F00403BD
:101D9800FB60FB68FEF7D8FD7861304BD3F89430D0
:101DA8002E4A23F00403C2F894307B69B3F5403F10
:101DB80003D07B69B3F5003F09D17B68B3F1805F3D
:101DC80002D201233B6133E000233B6130E07B68B2
:101DD800B3F1805F08D27B69B3F5803F02D103235A
:101DE8003B6125E0012335E07B68B3F1005F0FD943
:101DF8007B69002B09D17B68B3F1405F02D90023CE
:101E08003B6115E001233B6112E000233B610FE0D9
:101E18007B68B3F1805F09D17B69B3F5803F02D15C
:101E280001233B6104E002233B6101E001233B61A4
:101E38000B4B1B6823F00F0209493B6913430B60E6
:101E4800074B1B6803F00F033A699A4201D001233C
:101E580000E0002318461837BD4680BD000C024636
:101E68000020024002440346934200D1704703F821
:101E7800011BF9E770B50D4D00260D4C641BA4102D
:101E8800A64209D10B4D00260B4C00F017F8641B35
:101E9800A410A64205D170BD55F8043B01369847F9
:101EA800EEE755F8043B01369847F2E72C1F100877
:101EB8002C1F10082C1F1008301F1008F8B500BF81
:101EC800F8BC08BC9E467047F8B500BFF8BC08BC13
:041ED8009E4670476B
:101EDC0000000000000000000102030406070809CE
:101EEC00006CDC0200366E010024F400001BB7000D
:101EFC0000093D0080841E00504B140040420F002E
:101F0C0000E02E000070170000A00F0000B80B00BE
:101F1C00801A0600400D030088070200A08601000D
:041F2C005D0210083A
:041F3000390210085A
:091F340000093D0010000000014D
:04000005081003A537
:00000001FF
