:020000040C00EE
:1000000000000430510D000C9509000C9D09000CF6
:10001000A509000CAD09000CB509000CBD09000CC8
:10002000000000000000000000000000C509000CF6
:10003000D309000C00000000E109000CEF09000CDE
:10004000A10D000CA10D000CA10D000CA10D000CC8
:10005000A10D000CA10D000CA10D000CA10D000CB8
:10006000A10D000CA10D000CA10D000CA10D000CA8
:10007000A10D000CA10D000CA10D000CA10D000C98
:10008000A10D000CA10D000CA10D000CA10D000C88
:10009000A10D000CA10D000CA10D000CA10D000C78
:1000A000A10D000CA10D000CA10D000CA10D000C68
:1000B00000000000A10D000CA10D000CA10D000C12
:1000C000A10D000CA10D000CA10D000CA10D000C48
:1000D000A10D000CA10D000CA10D000CA10D000C38
:1000E000A10D000CA10D000CA10D000CA10D000C28
:1000F000A10D000CA10D000CA10D000CA10D000C18
:10010000A10D000CA10D000CA10D000CA10D000C07
:10011000A10D000CA10D000CA10D000CA10D000CF7
:10012000A10D000CA10D000CA10D000CA10D000CE7
:10013000A10D000CA10D000CA10D000CA10D000CD7
:10014000A10D000CA10D000CA10D000CA10D000CC7
:10015000A10D000CA10D000CA10D000CA10D000CB7
:10016000A10D000CA10D000CA10D000CA10D000CA7
:10017000A10D000CA10D000CA10D000CA10D000C97
:10018000A10D000CA10D000CA10D000CA10D000C87
:10019000A10D000CA10D000CA10D000CA10D000C77
:1001A000A10D000CA10D000CA10D000CA10D000C67
:1001B000A10D000C00000000A10D000CA10D000C11
:1001C000A10D000C00000000A10D000CA10D000C01
:1001D000A10D000CA10D000CA10D000CA10D000C37
:1001E000A10D000CA10D000CA10D000CA10D000C27
:1001F0000000000000000000A10D000CA10D000C8B
:10020000A10D000CA10D000CA10D000CA10D000C06
:10021000A10D000CA10D000CA10D000CA10D000CF6
:10022000A10D000CA10D000CA10D000CA10D000CE6
:08023000A10D000CA10D000C52
:1002380010B5054C237833B9044B13B10448AFF318
:1002480000800123237010BD0C0000300000000066
:10025800A81D000C08B5034B1BB103490348AFF3B5
:10026800008008BD0000000010000030A81D000C30
:100278002DE9E04F2746A046A146A246A346A4463C
:100288002DED108B4FF0000545EC185B45EC195A25
:1002980045EC1A5A45EC1B5A45EC1C5A45EC1D5ABC
:1002A80045EC1E5A45EC1F5AF1EE105A4FF660768F
:1002B800C0F6FF763540E1EE105A84F300882546F3
:1002C8002646A447BDEC108BBDE8E08F80B500AF93
:1002D80000F064FD00F04EF800F05CF800F07EFAE3
:1002E80000F068FA00F002F800BFFDE790B583B0AF
:1002F80000AF1E4B4FF001629A604FF001631B681C
:100308003B603B6883F3888800BF194B1B687B60A0
:100318007B681C4664086400204621462246234622
:10032800B7EE000AF7EE000AB7EE001AF7EE001A69
:10033800B7EE002AF7EE002AB7EE003AF7EE003AD9
:10034800B7EE004AF7EE004AB7EE005AF7EE005A49
:10035800B7EE006AF7EE006AB7EE007AF7EE007AB9
:10036800FFF786FF00BF0C37BD4690BD00ED02E0E9
:100378000400100880B500AF01F0C4FB01F0D2FB07
:10038800022001F06FFB0346002B01D000F078FA41
:1003980000BF80BD80B5C4B000AF07F58873A3F572
:1003A800867318464FF486731A46002101F0CCFC78
:1003B80040F20131132001F0EBF80346002B01D085
:1003C80000F05EFA40F20131134801F0E1F803460B
:1003D800002B01D000F054FA40F201310F4801F02F
:1003E800D7F80346002B01D000F04AFA40F2013159
:1003F8000B4801F0CDF80346002B01D000F040FA7D
:1004080040F20131074801F0C3F80346002B0BD036
:1004180000F036FA08E000BF0300001006000020D4
:10042800080000200A00002007F58873A3F58673EA
:1004380000221A6007F58873A3F5867300225A60B4
:1004480007F58873A3F5867300229A6007F5887309
:10045800A3F586730022DA6007F58873A3F586731F
:1004680000221A6107F58873A3F5867300225A6182
:1004780007F58873A3F5867300229A6107F58873D8
:10048800A3F586730022DA6107F58873A3F58673EE
:1004980000221A6207F58873A3F5867300225A6250
:1004A80007F58873A3F5867300229A6207F58873A7
:1004B800A3F586730022DA6207F58873A3F58673BD
:1004C80000221A6307F58873A3F5867300225A631E
:1004D80007F58873A3F5867300229A6307F5887376
:1004E800A3F586730022DA6307F58873A3F586738C
:1004F80000221A6407F58873A3F5867300225A64EC
:1005080007F58873A3F5867300229A6407F5887344
:10051800A3F586730022DA6407F58873A3F586735A
:1005280000221A6507F58873A3F5867300225A65B9
:1005380007F58873A3F5867300229A6507F5887313
:10054800A3F586730022DA6507F58873A3F5867329
:1005580000221A6607F58873A3F5867300225A6687
:1005680007F58873A3F5867300229A6607F58873E2
:10057800A3F586730022DA6607F58873A3F58673F8
:1005880000221A6707F58873A3F5867300225A6755
:1005980007F58873A3F5867300229A6707F58873B1
:1005A800A3F586730022DA6707F58873A3F58673C7
:1005B8000022C3F8802007F58873A3F5867300220C
:1005C800C3F8842007F58873A3F586730022C3F85F
:1005D800882007F58873A3F586730022C3F88C205A
:1005E80007F58873A3F586730022C3F8902007F5F2
:1005F8008873A3F586730022C3F8942007F58873DF
:10060800A3F586730022C3F8982007F58873A3F52D
:1006180086730022C3F89C2007F58873A3F58673B8
:100628000022C3F8A02007F58873A3F5867300227B
:10063800C3F8A42007F58873A3F586730022C3F8CE
:10064800A82007F58873A3F586730022C3F8AC20A9
:1006580007F58873A3F586730022C3F8B02007F561
:100668008873A3F586730022C3F8B42007F588734E
:10067800A3F586730022C3F8B82007F58873A3F59D
:1006880086730022C3F8BC2007F58873A3F5867328
:100698000022C3F8C02007F58873A3F586730022EB
:1006A800C3F8C42007F58873A3F586730022C3F83E
:1006B800C82007F58873A3F586730022C3F8CC20F9
:1006C80007F58873A3F586730022C3F8D02007F5D1
:1006D8008873A3F586730022C3F8D42007F58873BE
:1006E800A3F586730022C3F8D82007F58873A3F50D
:1006F80086730022C3F8DC2007F58873A3F5867398
:100708000022C3F8E02007F58873A3F5867300225A
:10071800C3F8E42007F58873A3F586730022C3F8AD
:10072800E82007F58873A3F586730022C3F8EC2048
:1007380007F58873A3F586730022C3F8F02007F540
:100748008873A3F586730022C3F8F42007F588732D
:10075800A3F586730022C3F8F82007F58873A3F57C
:1007680086730022C3F8FC2007F58873A3F5867307
:100778000022C3F8002107F58873A3F586730022C9
:10078800C3F8042107F58873A3F586730022C3F81C
:1007980008213B1D1946064801F05CF80346002B6A
:1007A80001D000F06DF800BF07F58877BD4680BD21
:1007B8000000043080B500AF002001F023F90346A3
:1007C800002B01D000F05CF801F03CF90346002B47
:1007D80001D000F055F800BF80BD000080B588B09A
:1007E80000AF07F10C0300221A605A609A60DA60C1
:1007F8001A61214BD3F88C301F4A43F00403C2F826
:100808008C301D4BD3F88C3003F00403BB60BB68FD
:10081800194BD3F88C30184A43F00103C2F88C30D6
:10082800154BD3F88C3003F001037B607B68124BC7
:10083800D3F88C30104A43F00203C2F88C300E4BC8
:10084800D3F88C3003F002033B603B684FF4C0637D
:10085800FB6002233B6100237B610023BB6107230C
:10086800FB6107F10C031946044800F0B9FC00BF0E
:100878002037BD4680BD00BF000C02560000025262
:1008880080B400AF72B600BF00BFFDE7C0B280B44D
:1008980083B000AF03463960FB713B68002B0DD075
:1008A800FB79002B02D0012B04D007E0204A3B68DB
:1008B800136003E01F4A3B68136000BF00BF0C379A
:1008C800BD465DF8047B7046714672467346B7EEC6
:1008D800000AF7EE000AB7EE001AF7EE001AB7EEB4
:1008E800002AF7EE002AB7EE003AF7EE003AB7EE24
:1008F800004AF7EE004AB7EE005AF7EE005AB7EE94
:10090800006AF7EE006AB7EE007AF7EE007A8EF327
:10091800008C10B4F1EE10CA4FF66074C0F6FF7484
:100928000CEA040CE1EE10CA10BCF446744700BF90
:10093800280000302C00003080B582B000AF124B88
:10094800D3F89430104A43F00403C2F894300E4BA5
:10095800D3F8943003F004037B607B680A4BD3F828
:100968008830094A43F08073C2F88830064BD3F8C0
:10097800883003F080733B603B6801F0C3F800BF28
:100988000837BD4680BD00BF000C025680B400AFDA
:1009980000BFFDE780B400AF00BFFDE780B400AF43
:1009A80000BFFDE780B400AF00BFFDE780B400AF33
:1009B80000BFFDE780B400AF00BFFDE780B400AF23
:1009C80000BFBD465DF8047B704780B400AF00BF30
:1009D800BD465DF8047B704780B400AF00BFBD46DC
:1009E8005DF8047B704780B500AF00F07DFA00BF6A
:1009F80080BD000080B400AF134B02221A60134B75
:100A0800D3F88C30114A43F44063C2F88C30104B51
:100A18005B6823F0E0530E4A43F0805353600D4B5C
:100A28000022C3F880220B4B0022C3F88422094B12
:100A38000022C3F88822074B0022C3F88C2200BF8B
:100A4800BD465DF8047B7047D0ED00E000ED00E0A6
:100A580030EF00E000E100E080B500AFFFF7CAFF2B
:100A68001A4BD3F88830194A43F47003C2F8883017
:100A7800174BD3F88830164A43F47003C2F888300D
:100A8800144B01221A60134B0022DA61114B002229
:100A98001A62104B00225A620E4B1B680D4A23F053
:100AA800A85323F4102313600A4B00229A62094BBF
:100AB8001B68084A23F480231360064B00221A653A
:100AC800024B4FF040629A6000BF80BD00ED00E02D
:100AD80000ED02E0000C025680B489B000AF734B01
:100AE8009B6803F40003002B07D1704BD3F8F43054
:100AF8001B0B03F00F03FB6105E06C4B9B681B0F9E
:100B080003F00F03FB616A4AFB6952F82330FB616B
:100B1800664BDB6903F00C030C2B00F2AE8001A2DC
:100B280052F823F0610B000C830C000C830C000CB2
:100B3800830C000C690B000C830C000C830C000C5C
:100B4800830C000C710B000C830C000C830C000C44
:100B5800830C000C790B000C564AFB69136090E07B
:100B6800544B554A1A608CE0524B534A1A6088E03D
:100B78004E4B9B6A03F003037B614C4B9B6A1B0A39
:100B880003F00F0301333B61484B9B6A1B0903F0D9
:100B98000103FB60454B9B6BDB08C3F30C03FA684E
:100BA80002FB03F307EE903AF8EE677AC7ED027A94
:100BB8007B69032B19D07B69032B22D87B69002B17
:100BC80003D07B69022B04D01BE04FF00003BB610C
:100BD80026E03B6907EE903AB8EE677ADFED376AB0
:100BE800C6EE877AC7ED067A1AE03B6907EE903AB7
:100BF800B8EE677ADFED316AC6EE877AC7ED067A16
:100C08000EE0FB6907EE903AF8EE676A3B6907EE7B
:100C1800903AB8EE677AC6EE877AC7ED067A00BFD3
:100C2800224B5B6BC3F3080307EE903AB8EE677A82
:100C3800D7ED026A9FED226AC6EE867A77EE277AAA
:100C4800B7EE007A77EE877A97ED067A67EE277A1D
:100C5800C7ED067A154B5B6B1B0E03F07F03013360
:100C68007B60D7ED067AFCEEE77A17EE902A7B6870
:100C7800B2FBF3F30F4A136003E00E4AFB691360FB
:100C880000BF0A4B1B6A03F00F030E4AD35C3B609C
:100C9800084B1A683B6822FA03F3064A136000BF40
:100CA8002437BD465DF8047B704700BF000C025630
:100CB800D01D000C000000300024F4000024744B08
:100CC80000000046C01D000C80B500AFFFF704FF10
:100CD8001C4B1B681846BD46BDE8804071467246ED
:100CE8007346B7EE000AF7EE000AB7EE001AF7EE01
:100CF800001AB7EE002AF7EE002AB7EE003AF7EE30
:100D0800003AB7EE004AF7EE004AB7EE005AF7EE9F
:100D1800005AB7EE006AF7EE006AB7EE007AF7EE0F
:100D2800007A8EF3008C10B4F1EE10CA4FF660749E
:100D3800C0F6FF740CEA040CE1EE10CA10BCF446CD
:100D4800744700BF00000030DFF834D0FFF784FE9E
:100D5800002103E00B4B5B58435004310A480B4B0E
:100D680042189A42F6D30A4A02E0002342F8043BAA
:100D7800084B9A42F9D300F0EFFFFFF7A7FAFEE716
:100D880000000430981E000C0000003009000030FC
:100D98000C00003034000030FEE7000080B500AFE2
:100DA800124B1B68114A43F480731360032000F050
:100DB8003EF900F0C7FE02460D4B1B6A03F00F0315
:100DC8000C49CB5C22FA03F30B4A1360042000F0B1
:100DD80075F90F2000F012F80346002B01D001230B
:100DE80002E0FFF7A9FD0023184680BD002002504D
:100DF800000C0256C01D000C0000003080B584B005
:100E080000AF78600023FB60334B1B78002B01D1C7
:100E180001235CE0314B1B6803F00403042B0CD165
:100E28002F4B1A682C4B1B7819464FF47A73B3FB77
:100E3800F1F3B2FBF3F3FB6037E000F097F9B86029
:100E4800BB68022B23D0BB68022B2DD8BB68002BB4
:100E580003D0BB68012B0DD026E0214B1A681E4B2E
:100E68001B7819464FF4FA53B3FBF1F3B2FBF3F3D3
:100E7800FB601AE0184B1B781A464FF47A73B3FBE1
:100E8800F2F34FF4FA42B2FBF3F3FB600DE0124BBE
:100E98001B781A464FF47A73B3FBF2F34FF400420F
:100EA800B2FBF3F3FB6000E000BFF86800F0E4F881
:100EB8000346002B01D0012309E0002279684FF096
:100EC800FF3000F0BFF8074A7B681360002318461C
:100ED8001037BD4680BD00BF0800003010E000E0BC
:100EE800000000300400003080B400AF064B1B78CF
:100EF8001A46064B1B681344044A136000BFBD46DC
:100F08005DF8047B704700BF0800003030000030F7
:100F180080B485B000AF78607B6803F00703FB609E
:100F28000C4BDB68BB60BA684FF6FF031340BB602D
:100F3800FB681A02BB68134343F0BF6343F40033F2
:100F4800BB60044ABB68D36000BF1437BD465DF878
:100F5800047B704700ED00E080B400AF044BDB6811
:100F68001B0A03F007031846BD465DF8047B70476B
:100F780000ED00E080B483B000AF03463960FB7138
:100F880097F90730002B0ADB3B68DAB20C4997F96E
:100F980007301201D2B20B4483F800230AE03B6801
:100FA800DAB20849FB7903F00F03043B1201D2B20D
:100FB8000B441A7600BF0C37BD465DF8047B7047BA
:100FC80000E100E000ED00E080B489B000AFF86017
:100FD800B9607A60FB6803F00703FB61FB69C3F142
:100FE8000703042B28BF0423BB61FB690433062BCA
:100FF80002D9FB69033B00E000237B614FF0FF321D
:10100800BB6902FA03F3DA43BB681A407B699A406A
:101018004FF0FF317B6901FA03F3D9437B680B403A
:10102800134318462437BD465DF8047B704780B5E6
:1010380082B000AF78607868FFF76AFF00BF0837B2
:10104800BD4680BD80B586B000AF0346B9607A6002
:10105800FB73FFF781FF78617A68B9687869FFF7F1
:10106800B3FF024697F90F3011461846FFF782FF83
:1010780000BF1837BD4680BD80B483B000AF78602C
:101088007B68013BB3F1807F01D301230DE00A4A5D
:101098007B68013B5360084B00229A60064B1B6833
:1010A800054A43F003031360002318460C37BD4676
:1010B8005DF8047B704700BF10E000E080B483B0A7
:1010C80000AF78607B68042B44D801A252F823F063
:1010D800FB10000C1911000C3B11000C5D11000CE9
:1010E800ED10000C1F4B1B681E4A43F004031360ED
:1010F80031E01C4B1B681B4A23F0040313601A4B96
:10110800D3F8E030184A23F44003C2F8E03022E074
:10111800144B1B68134A23F004031360124BD3F8D3
:10112800E03023F44003104A43F48003C2F8E0306F
:1011380011E00C4B1B680B4A23F0040313600A4BA5
:10114800D3F8E03023F44003074A43F40003C2F81D
:10115800E03000E000BF00BF0C37BD465DF8047BFF
:10116800704700BF10E000E0000C025680B483B066
:1011780000AF194B1B6803F00403002B02D00423B3
:101188007B6021E0154BD3F8E03003F440033B606B
:101198003B68B3F5000F11D03B68B3F5000F10D8CA
:1011A8003B68002B04D03B68B3F5800F03D008E000
:1011B80000237B6008E001237B6005E002237B605D
:1011C80002E000237B6000BF7B6818460C37BD46F1
:1011D8005DF8047B704700BF10E000E0000C025689
:1011E80080B489B000AF7860396000237B617B6888
:1011F8003B61BAE13B681A6801217B6901FA03F394
:101208001340FB607B69BB61FB68002B00F0AA817F
:101218007B68554A93425DD17B681B68FB6101225C
:101228007B6902FA03F3DB43FA691340FB613B680D
:101238005B6803F001027B6902FA03F3FA6913435E
:10124800FB617B68FA691A60484A7B6952F8333057
:101258003B61464A7B69DB0013445B68BB61BB6941
:10126800DA083B69083253F82230FB61BB6903F0A6
:1012780007039B000F2202FA03F3DB43FA691340CA
:10128800FB61BB6903F007039B000B2202FA03F31F
:10129800FA691343FB61BB69DA083B690832F969EB
:1012A80043F822103B691B68FB61BB695B000322A2
:1012B80002FA03F3DB43FA691340FB61BB695B0085
:1012C800022202FA03F3FA691343FB613B69FA69E4
:1012D8001A6067E03B685B68022B03D03B685B6879
:1012E800122B45D17B69DA087B68083253F8223023
:1012F800FB617B6903F007039B000F2202FA03F3EB
:10130800DB43FA691340FB613B681B6903F00F027A
:101318007B6903F007039B0002FA03F3FA6913439E
:10132800FB617B69DA087B680832F96943F82210A7
:101338003B691B68FB61BB695B00032202FA03F38C
:10134800DB43FA691340FB613B685B6803F0030207
:10135800BB695B0002FA03F3FA691343FB613B695B
:10136800FA691A601EE000BF00000256101E000C49
:101378003B691B68FB61BB695B00032202FA03F34C
:10138800DB43FA691340FB613B685B6803F00302C7
:10139800BB695B0002FA03F3FA691343FB613B691B
:1013A800FA691A603B685B68012B0BD03B685B6885
:1013B800022B07D03B685B68112B03D03B685B6846
:1013C800122B30D13B699B68FB61BB695B00032230
:1013D80002FA03F3DB43FA691340FB613B68DA68FE
:1013E800BB695B0002FA03F3FA691343FB613B69CB
:1013F800FA699A603B695B68FB610122BB6902FA82
:1014080003F3DB43FA691340FB613B685B681B0924
:1014180003F00102BB6902FA03F3FA691343FB61A3
:101428003B69FA695A603B685B68032B17D03B69D4
:10143800DB68FB61BB695B00032202FA03F3DB4351
:10144800FA691340FB613B689A68BB695B0002FA62
:1014580003F3FA691343FB613B69FA69DA603B6895
:101468005B6803F08053002B7CD0474A7B699B085C
:10147800183352F82330FB617B6903F00303DB0068
:101488000F2202FA03F3DB43FA691340FB617B681E
:101498009A0A3E4B13407A6902F00302D200934045
:1014A800FA691343FB6138497B699B081833FA6969
:1014B80041F82320344B1B68FB61FB68DB43FA6966
:1014C8001340FB613B685B6803F48013002B03D077
:1014D800FA69FB681343FB612B4AFB6913602A4BCB
:1014E8005B68FB61FB68DB43FA691340FB613B689F
:1014F8005B6803F40013002B03D0FA69FB681343FD
:10150800FB61214AFB6953601F4BD3F88430FB61B0
:10151800FB68DB43FA691340FB613B685B6803F4D3
:101528000033002B03D0FA69FB681343FB61164AAA
:10153800FB69C2F88430144BD3F88030FB61FB6838
:10154800DB43FA691340FB613B685B6803F4803353
:10155800002B03D0FA69FB681343FB610A4AFB6955
:10156800C2F880307B6901337B613B681A687B690C
:1015780022FA03F3002B7FF43DAE00BF00BF2437EF
:10158800BD465DF8047B7047002002567F7F2B0024
:1015980080B485B000AF786039603B68B3F5417FAF
:1015A80034D27B681B0F032B09D87B681B0F5A01A9
:1015B8007B6803F01F0313446C2B27D809E07B6872
:1015C8001B0F013B5A017B6803F01F0313446C2B6C
:1015D8001CD87B6803F02003002B19D07B681B0FF5
:1015E800032B09D87B681B0F5A017B6803F01F0384
:1015F8001344002B0AD10BE07B681B0F013B5A01F7
:101608007B6803F01F031344002B01D0012316E16C
:101618007B6803F02003002B00F096803A6840F2C4
:101628000113134040F20112934220D1874B1B69EA
:10163800864A6FEA13536FEA03531361834B5B695E
:10164800824A6FEA53236FEA432353617F4B9B69B6
:101658007E4A6FEAD3536FEAC35393617C4B1B698D
:101668007B4A43F4DF5343F01F03136120E03B68D8
:1016780003F48073002B1BD0744B1B69734A1B0D3A
:101688001B051361714B5B69704A23F4FF7323F0E8
:10169800010353616D4B9B696C4ADB0DDB0593615C
:1016A8006B4B1B696A4A23F4DF5323F01F03136152
:1016B8003A6840F20223134040F20222934220D1BA
:1016C800624B1B6A614A6FEA13536FEA0353136252
:1016D8005E4B5B6A5D4A6FEA53236FEA43235362AA
:1016E8005A4B9B6A594A6FEAD3536FEAC3539362C2
:1016F800574B1B6A564A43F4DF5343F01F031362E8
:101708009CE03B6803F40073002B00F097804F4B7C
:101718001B6A4E4A1B0D1B0513624C4B5B6A4B4AF6
:1017280023F4FF7323F001035362484B9B6A474A33
:10173800DB0DDB059362464B1B6A454A23F4DF53F6
:1017480023F01F03136279E07B681B0F032B01D87A
:101758003E4B00E03E4B10331A467B6803F0704363
:10176800B3F1405F03D87B681B0F9B0003E07B68E5
:101778001B0F043B9B001344FB603A6840F20113C3
:10178800134040F2011293420AD1FB6819687B6842
:1017980003F01F0301229A40FB680A431A6010E015
:1017A8003B6803F48073002B0BD0FB6819687B68D7
:1017B80003F01F03012202FA03F3DA43FB680A402D
:1017C8001A607B681B0F032B01D8204B00E0204BCD
:1017D80020331A467B6803F07043B3F1405F03D8A7
:1017E8007B681B0F9B0003E07B681B0F043B9B007F
:1017F8001344FB603A6840F20223134040F202228D
:1018080093420AD1FB6819687B6803F01F03012221
:101818009A40FB680A431A6010E03B6803F40073BF
:10182800002B0BD0FB6819687B6803F01F030122AB
:1018380002FA03F3DA43FB680A401A6000231846E9
:101848001437BD465DF8047B704700BF0024035081
:101858000030025680B489B000AF786039607B6888
:10186800B3F1005F1BD07B68B3F1405F17D07B6892
:101878005C4A934213D07B685B4A93420FD07B68E3
:101888005A4A93420BD07B68594A934207D07B68E7
:10189800B3F1205F03D07B68B3F1605F11D13B687F
:1018A8001B68002B04D03B681B68B3F1004F08D1BC
:1018B8003B685B68002B06D03B685B68B3F1804FE0
:1018C80001D0012388E07B68B3F1005F03D07B6817
:1018D800B3F1405F05D1474BFB614FF44033BB6127
:1018E8002BE07B683F4A934203D07B683E4A934291
:1018F80005D1414BFB614FF48033BB611DE07B6830
:101908003A4A934203D07B68394A934205D13B4B0C
:10191800FB614FF40023BB610FE07B68B3F1205FEC
:1019280003D07B68B3F1605F05D1354BFB614FF4A1
:101938008043BB6101E001234EE0BB699B0B3B6127
:1019480000237B610CE03B687A69223253F822104D
:10195800FB697A69803243F822107B6901337B6125
:101968007A693B699A42EED300237B610CE03B68BD
:101978007A69023253F82210FB697A69403243F8D7
:1019880022107B6901337B617A693B699A42EED305
:101998003B6903F01F03012202FA03F3013BFB60DA
:1019A800FB691A69FB68DB431A403B68D3F80831C6
:1019B8001A43FB691A613B685B68BB603B681B683C
:1019C800BA681343BB60FB691B6823F04042BB68DD
:1019D8001A43FB691A60002318462437BD465DF890
:1019E800047B70470000032000000330000004203F
:1019F80000000430002C0350003003500034035022
:101A08000038025680B485B000AF78600023FB73BD
:101A18000B4B1B6803F00103002B02D00123FB735F
:101A280007E0074B1B6823F0040205497B68134352
:101A38000B60FB7B18461437BD465DF8047B704786
:101A48000004035080B400AF054B1B68044A43F000
:101A58000103136000231846BD465DF8047B7047F8
:101A68000004035080B485B000AF7860224B1B6837
:101A7800224AA2FB03239B09322202FB03F31F4ADB
:101A8800A2FB03239B090133FB607B68002B13D166
:101A98001B4B9B681A4A23F00203936002E0FB6821
:101AA800013BFB60164BDB6B03F00203022B16D1E4
:101AB800FB68002BF3D112E0114B9B68104A43F0EE
:101AC8000203936002E0FB68013BFB600C4BDB6B9D
:101AD80003F00203002B02D1FB68002BF3D1FB6853
:101AE800002B01D1032300E0002318461437BD461C
:101AF8005DF8047B704700BF00000030D34D6210D2
:101B08000008025680B400AF054B1B69044A43F035
:101B18000053136100BFBD465DF8047B704700BFEA
:101B28000008025680B400AF054BDB6A044A43F054
:101B38000103D36200BFBD465DF8047B704700BF58
:101B48000008025680B48BB000AF00237B620023EC
:101B58003B62784BDB6903F00C03BB61754B9B6AF6
:101B680003F003037B61BB69002B05D0BB690C2B19
:101B780021D17B69012B1ED16E4B9B6803F40003B6
:101B8800002B07D16B4BD3F8F4301B0B03F00F037A
:101B98007B6205E0674B9B681B0F03F00F037B62BA
:101BA800654A7B6A52F823307B62BB69002B10D1EF
:101BB8007B6A3B620DE05F4BDB6903F00C03042B8F
:101BC80002D15E4B3B6204E0BB69082B01D15B4B41
:101BD8003B62BB690C2B40F0A580564B9B6A03F017
:101BE80003033B61534B9B6A1B0A03F00F0301334A
:101BF800FB60504B9B6A1B0903F00103BB604D4B14
:101C08009B6BDB08C3F30C03BA6802FB03F307EE14
:101C1800903AF8EE677AC7ED017A3B69022B03D058
:101C28003B69032B22D043E0FB6807EE903AF8EEBD
:101C3800677ADFED436A86EEA77A3E4B5B6BC3F3A8
:101C4800080307EE903AF8EE676A97ED016ADFED50
:101C58003D5AC6EE257A76EEA77AF7EE006A77EE59
:101C6800A67A67EE277AC7ED077A46E0FB6807EEA3
:101C7800903AF8EE677ADFED326A86EEA77A2D4B56
:101C88005B6BC3F3080307EE903AF8EE676A97EDCB
:101C9800016ADFED2C5AC6EE257A76EEA77AF7EEC2
:101CA800006A77EEA67A67EE277AC7ED077A24E00E
:101CB8007B6A07EE903AF8EE676AFB6807EE903A9F
:101CC800F8EE677A86EEA77A1A4B5B6BC3F30803C4
:101CD80007EE903AF8EE676A97ED016ADFED195A58
:101CE800C6EE257A76EEA77AF7EE006A77EEA67A40
:101CF80067EE277AC7ED077A00BF0E4B5B6B1B0EAA
:101D080003F07F0301333B603B6807EE903AB8EE7F
:101D1800677AD7ED076AC6EE877AFCEEE77A17EEA0
:101D2800903A3B623B6A18462C37BD465DF8047B07
:101D3800704700BF000C0256D01D000C0024F400B0
:101D48000024744B0000004602440346934200D12D
:101D5800704703F8011BF9E770B50D4D00260D4CCF
:101D6800641BA410A64209D10B4D00260B4C00F0B1
:101D780017F8641BA410A64205D170BD55F8043BA2
:101D880001369847EEE755F8043B01369847F2E7E5
:101D9800901E000C901E000C901E000C941E000C4F
:101DA800F8B500BFF8BC08BC9E467047F8B500BF40
:081DB800F8BC08BC9E46704710
:101DC00000000000000000000102030406070809EB
:101DD000006CDC0200366E010024F400001BB7002A
:101DE00000093D0080841E00504B140040420F004B
:101DF00000E02E000070170000A00F0000B80B00DC
:101E0000801A0600400D030088070200A08601002A
:101E10000000025201000000000002520300000016
:101E200000000252060000000004025201000000FF
:101E3000000402520A0000000008025202000000E2
:101E4000000C02520D000000000C025202000000C3
:101E5000000802520A0000000004025200000000C4
:101E6000000802520C0000000004025203000000AF
:101E700000040252040000000010025200000000A2
:101E80000010025202000000001002520300000085
:041E90005D02000CE3
:041E94003902000C03
:091E980000093D001000000001EA
:020000040C0FDF
:10E000007FE97FE902F764BE7FE97FE902F742BC5E
:10E010000000000000000000000000000000000000
:040000050C000D518D
:00000001FF
